:040000004CEF00F0D1
:100008000182F2A20AEF00F00CEF00F018EF00F006
:10001800F2925850D8A413EF00F015EF00F018EF43
:1000280000F0010E00017F6FF2A01DEF00F01FEF3E
:1000380000F048EF00F081CF04F004BE26EF00F096
:1000480029EF00F0010E2AEF00F0000E056E0504FE
:10005800D8A431EF00F033EF00F046EF00F00001D4
:100068007D51D8A43AEF00F03CEF00F046EF00F0E5
:100078005850D8A442EF00F044EF00F046EF00F0EB
:10008800010E7E6F05C07DF074EC16F00192110030
:0400980076EF15F0FA
:10060000000040145445646974616E646F3A20437D
:100610006F727269656E74650045646974616E64B9
:100620006F3A20566F6C74616A650023203D20701C
:10063000756E746F20646563696D616C00496E67E7
:100640007265736520756E2076616C6F72005661FD
:100650006C6F7220677561726461646F005961200C
:100660007469656E652070756E746F005242303D1E
:100670005620205242373D49004275666665722019
:100680006C6C656E6F00436F727269656E74653A6B
:1006900020004D6178696D6F2033302056002A208C
:1006A0003D2067756172646172004D6178696D6F9C
:1006B0002033204100566F6C74616A653A20004413
:1006C000414320493A200044414320563A200056F5
:1006D000616C6F723A2000496D65643A2000566D76
:1006E00065643A200053657420563A004552524FD3
:1006F000520020493A004F4B002D00003050800B33
:10070000396E305030243B6E2FAE89EF03F08BEF03
:1007100003F08CEF03F03B803B50D8B492EF03F032
:1007200094EF03F0A8EF03F03B28D8A49AEF03F06E
:100730009CEF03F0A4EF03F0000E2D6E000E2E6E62
:10074000000E2F6E000E306E2F8E306AB0EF03F069
:10075000000E2D6E000E2E6E000E2F6E000E306EEF
:100760003450800B3A6E39503A18D8B4BAEF03F0CF
:10077000BCEF03F0BDEF03F0398C345034243A6EF3
:1007800033AEC5EF03F0C7EF03F0C8EF03F03A80D4
:100790003A50D8B4CEEF03F0D0EF03F0E4EF03F01B
:1007A0003A28D8A4D6EF03F0D8EF03F0E0EF03F037
:1007B000000E316E000E326E000E336E000E346E7F
:1007C000338E346AECEF03F0000E316E000E326EA1
:1007D000000E336E000E346E3B503A5CD8B0F3EF2F
:1007E00003F0F5EF03F01CEF04F039ACFAEF03F07F
:1007F000FCEF03F0FEEF03F0800E391A3BC03CF033
:100800003AC03BF03CC03AF02DC03CF031C02DF076
:100810003CC031F02EC03CF032C02EF03CC032F073
:100820002FC03CF033C02FF03CC033F030C03CF060
:1008300034C030F03CC034F03C6A3B503AC035F034
:10084000366A355E000E365A36BE30EF04F036504A
:1008500009E11A0E355CD8A030EF04F032EF04F055
:1008600069EF04F02D502E102F103010D8A43BEF5C
:1008700004F03EEF04F0010E3FEF04F0000E3C6E7A
:10088000000E2D6E000E2E6E000E2F6E000E306EBE
:100890003AC03BF072EF04F03CA051EF04F053EF8C
:1008A00004F059EF04F0D8903C3001093C6E5BEF46
:1008B00004F0D8903C322DA060EF04F062EF04F019
:1008C00063EF04F03C8E303430322F322E322D3232
:1008D0003B2A3A503B5CD8A070EF04F072EF04F072
:1008E0004CEF04F039BC77EF04F079EF04F0B9EF86
:1008F00004F03B50D8A47FEF04F081EF04F08BEFBD
:1009000004F0000E2D6E000E2E6E000E2F6E000EE7
:10091000306ED8EF05F031502D2632502E22335054
:100920002F223450302230A098EF04F09AEF04F0D8
:1009300046EF05F03CA09FEF04F0A1EF04F0A7EF15
:1009400004F0D8903C3001093C6EA9EF04F0D89037
:100950003C322DA0AEEF04F0B0EF04F0B1EF04F0A4
:100960003C8E303430322F322E322D323B2A46EF3D
:1009700005F031502D5C32502E5833502F583050E6
:10098000800A356E3450800A3558D8B0CAEF04F06A
:10099000CCEF04F0F7EF04F02D50315C356E2E50A3
:1009A0003258366E2F503358376E30503458386EB8
:1009B000FF0E35242D6EFF0E36202E6EFF0E3720D3
:1009C0002F6EFF0E3820306E800E391A3C6C3C5072
:1009D000D8A4EDEF04F0EFEF04F0FFEF04F0010E08
:1009E0002D26000E2E222F223022FFEF04F0315050
:1009F0002D5E32502E5A33502F5A3450305A2D50CB
:100A00002E102F103010D8A408EF05F00AEF05F0D3
:100A10003FEF05F03C50D8A410EF05F012EF05F0C1
:100A20003FEF05F0000E2D6E000E2E6E000E2F6EA5
:100A3000000E306ED8EF05F0D8902D362E362F36BA
:100A400030363CAE26EF05F028EF05F029EF05F033
:100A50002D803CA02EEF05F030EF05F034EF05F0CF
:100A6000D8803C3636EF05F0D8903C363B50D8B4B1
:100A70003CEF05F03EEF05F03FEF05F03B062FAEF3
:100A800044EF05F046EF05F01CEF05F03A6A3CAE86
:100A90004CEF05F04EEF05F066EF05F03CC035F089
:100AA0007F0E3516D8B457EF05F059EF05F05DEF1E
:100AB00005F0010E3A6E66EF05F02DA062EF05F02D
:100AC00064EF05F066EF05F059EF05F03A50D8B441
:100AD0006CEF05F06EEF05F099EF05F0010E2D2695
:100AE000000E2E222F22302230A079EF05F07BEF6E
:100AF00005F099EF05F02DC035F02EC036F02FC06F
:100B000037F030C038F03834383237323632353298
:100B100035C02DF036C02EF037C02FF038C030F081
:100B20003B28D8B496EF05F098EF05F099EF05F063
:100B30003B2A3B28D8B49FEF05F0A1EF05F0A9EFC1
:100B400005F03B50D8A4A7EF05F0A9EF05F0BAEFE8
:100B500005F0000E2D6E000E2E6E000E2F6E000E94
:100B6000306E3B50D8A4B7EF05F0B9EF05F0BAEFFF
:100B700005F0396A3BA0BFEF05F0C1EF05F0C4EF07
:100B800005F02F8EC5EF05F02F9ED8903B30306ECC
:100B900039AECDEF05F0CFEF05F0D0EF05F0308E98
:100BA0002DC02DF02EC02EF02FC02FF030C030F011
:100BB00012001750800B206E17501724266E16AEA9
:100BC000E4EF05F0E6EF05F0E7EF05F026802650AC
:100BD000D8B4EDEF05F0EFEF05F002EF06F02628B0
:100BE000D8A4F5EF05F0F7EF05F0FFEF05F0000EE4
:100BF000146E000E156E000E166E000E176E168E19
:100C00000AEF06F0000E146E000E156E000E166E42
:100C1000000E176E1B50800B201A1B501B24216ED8
:100C20001AAE15EF06F017EF06F018EF06F0218068
:100C30002150D8B41EEF06F020EF06F033EF06F097
:100C40002128D8A426EF06F028EF06F030EF06F0B2
:100C5000000E186E000E196E000E1A6E000E1B6E3E
:100C60001A8E3BEF06F0000E186E000E196E000E85
:100C70001A6E000E1B6E2150D8B441EF06F043EF00
:100C800006F04BEF06F02650D8A449EF06F04BEFE4
:100C900006F055EF06F0000E146E000E156E000EF5
:100CA000166E000E176EEBEF07F01A501402F3CF1A
:100CB0002BF0F4CF2CF02B50226E236A246A256A85
:100CC0002C50276E286A296A2A6A19501502F3CF18
:100CD0002BF0F4CF2CF02B502226000E23222422BE
:100CE00025222C502726000E282229222A2218509D
:100CF0001602F3CF2BF0F4CF2CF02B502226000E4F
:100D00002322242225222C502726000E28222922A5
:100D10002A2224C025F023C024F022C023F0226A16
:100D200018501502F3CF2BF0F4CF2CF02B502226C5
:100D30002C502322000E2422000E252219501402CA
:100D4000F3CF2BF0F4CF2CF02B5022262C50232263
:100D5000000E2422000E252224C025F023C024F0FA
:100D600022C023F0226A18501402F3CF2BF0F4CFE4
:100D70002CF02B5022262C502322000E2422000E71
:100D800025221A501502F3CF2BF0F4CF2CF02B5064
:100D900027262C502822000E2922000E2A22195024
:100DA0001602F3CF2BF0F4CF2CF02B5027262C502B
:100DB0002822000E2922000E2A221A501602F3CFF2
:100DC0002BF0F4CF2CF02B501C6E2C501D6E1E6A95
:100DD0001F6A1EC01FF01DC01EF01CC01DF01C6A43
:100DE0001C5027261D5028221E5029221F502A221F
:100DF00022C01CF023C01DF024C01EF025C01FF02F
:100E0000190E08EF07F0D8901F321E321D321C3227
:100E1000E82E03EF07F01C5027261D5028221E50F5
:100E200029221F502A2224C025F023C024F022C0EA
:100E300023F0226A215026C01CF01D6A1C26000ED9
:100E40001D22820E1C242B6EFF0E1D202C6E3EEFE9
:100E500007F0D8902736283629362A3625AE33EFC4
:100E600007F035EF07F036EF07F02780D8902236ED
:100E70002336243625362B06D8A02C0629AE43EF80
:100E800007F045EF07F029EF07F0216A25AE4BEF99
:100E900007F04DEF07F071EF07F0FF0E22141C6E04
:100EA000FF0E23141D6EFF0E24141E6E7F0E2514DC
:100EB0001F6E1C501D101E101F10D8B462EF07F0DB
:100EC00064EF07F068EF07F0010E216E71EF07F095
:100ED00027A06DEF07F06FEF07F071EF07F064EFF9
:100EE00007F02150D8B477EF07F079EF07F09DEFC6
:100EF00007F0010E2726000E282229222A222AA0E6
:100F000084EF07F086EF07F09DEF07F027C01CF095
:100F100028C01DF029C01EF02AC01FF01F341F3248
:100F20001E321D321C321CC027F01DC028F01EC00E
:100F300029F01FC02AF02B4A2C2A2CBEA8EF07F05C
:100F40002C5008E12B28D8A0A8EF07F0AAEF07F053
:100F5000B4EF07F0000E276E000E286E800E296E8B
:100F60007F0E2A6EE1EF07F02CBEC1EF07F02C5088
:100F700006E12B04D8B0BFEF07F0C1EF07F0CCEFCC
:100F800007F0000E276E000E286E000E296E000E70
:100F90002A6E206AE1EF07F02BC026F0FF0E27161D
:100FA000FF0E28167F0E2916000E2A1626A0DBEF4C
:100FB00007F0DDEF07F0DEEF07F0298ED89026303E
:100FC0002A6E20502A1227C014F028C015F029C01C
:100FD00016F02AC017F012003050800B3D6E3050D2
:100FE0003024446E2FAEF7EF07F0F9EF07F0FAEF79
:100FF00007F044804450D8B400EF08F002EF08F046
:1010000016EF08F04428D8A408EF08F00AEF08F01B
:1010100012EF08F0000E2D6E000E2E6E000E2F6ED9
:10102000000E306E2F8E306A1EEF08F0000E2D6E0F
:10103000000E2E6E000E2F6E000E306E3450800BA0
:101040003D1A34503424456E33AE29EF08F02BEFAF
:1010500008F02CEF08F045804550D8B432EF08F086
:1010600034EF08F048EF08F04528D8A43AEF08F02C
:101070003CEF08F044EF08F0000E316E000E326EC7
:10108000000E336E000E346E338E346A50EF08F06B
:10109000000E316E000E326E000E336E000E346E96
:1010A0003150321033103410D8A459EF08F05BEFF0
:1010B00008F073EF08F0000E2D6E000E2E6E000E7D
:1010C0002F6E000E306E800E2F127F0E30123D50AC
:1010D00030122DC02DF02EC02EF02FC02FF030C0BA
:1010E00030F0B2EF09F04450D8A479EF08F07BEF6C
:1010F00008F085EF08F0000E2D6E000E2E6E000E2B
:101100002F6E000E306EB2EF09F0455044C035F03E
:10111000366A355E000E365A7F0E35243E6E000E5E
:1011200036203F6E2DC039F02EC03AF02FC03BF074
:1011300030C03CF0000E2D6E000E2E6E000E2F6E95
:10114000000E306E000E406E000E416E000E426EBC
:10115000000E436E456AE5EF08F04550D8B4B3EF92
:1011600008F0B5EF08F0CCEF08F0D89039363A36F1
:101170003B363C36D8902D362E362F36303643AEA1
:10118000C4EF08F0C6EF08F0C7EF08F02D80D89044
:1011900040364136423643363150395C32503A5847
:1011A00033503B5834503C58D8A0D9EF08F0DBEF0F
:1011B00008F0E4EF08F0438C3150395E32503A5A6F
:1011C00033503B5A34503C5A452A190E4564EBEFD4
:1011D00008F0EDEF08F0ADEF08F039503A103B1091
:1011E0003C10D8B4F6EF08F0F8EF08F010EF09F073
:1011F000408010EF09F0D8902D362E362F3630363D
:1012000043AE05EF09F007EF09F008EF09F02D8074
:10121000D89040364136423643363E06D8A03F0687
:101220002FAE15EF09F017EF09F0FBEF08F0456A54
:1012300043AE1DEF09F01FEF09F043EF09F0FF0E79
:101240004014356EFF0E4114366EFF0E4214376E99
:101250007F0E4314386E3550361037103810D8B41E
:1012600034EF09F036EF09F03AEF09F0010E456E60
:1012700043EF09F02DA03FEF09F041EF09F043EFF4
:1012800009F036EF09F04550D8B449EF09F04BEFBB
:1012900009F06FEF09F0010E2D26000E2E222F22ED
:1012A000302230A056EF09F058EF09F06FEF09F047
:1012B0002DC035F02EC036F02FC037F030C038F0DA
:1012C0003834383237323632353235C02DF036C008
:1012D0002EF037C02FF038C030F03E4A3F2A3FBED4
:1012E0007AEF09F03F5008E13E28D8A07AEF09F0E4
:1012F0007CEF09F087EF09F0000E3F6E3E68000EAC
:101300002D6E000E2E6E000E2F6E000E306E3FBE44
:1013100094EF09F03F5006E13E04D8B092EF09F097
:1013200094EF09F0A0EF09F03F6A000E3E6E000E48
:101330002D6E000E2E6E000E2F6E000E306E3D6A6A
:101340003EC044F044A0A7EF09F0A9EF09F0ACEFCC
:1013500009F02F8EADEF09F02F9ED8904430306EFB
:1013600067EF08F01200000E496E000E4A6E000E84
:101370004B6E000E4C6ECD0E456ECC0E466ECC0EF6
:10138000476E3D0E486E446A91EF0AF03D50D96EAB
:10139000DA6A2E0EDE18D8A4D0EF09F0D2EF09F0E9
:1013A000D6EF09F0010E446E90EF0AF03D50D96E71
:1013B000DA6A2F0EDF64DFEF09F0E1EF09F090EF5A
:1013C0000AF03D50D96EDA6A3A0EDF60EAEF09F0B2
:1013D000ECEF09F090EF0AF04450D8A4F2EF09F0D6
:1013E000F4EF09F036EF0AF0000E186E000E196ED9
:1013F000200E1A6E410E1B6E49C014F04AC015F043
:101400004BC016F04CC017F0D9EC05F014C02DF00D
:1014100015C02EF016C02FF017C030F03D50D96E19
:10142000DA6ADF50416ED00E4124426E436AFF0EED
:10143000432242C006F043C007F0086A096A000E62
:1014400083EC0BF006C031F007C032F008C033F077
:1014500009C034F07EEC03F02DC049F02EC04AF0F4
:101460002FC04BF030C04CF090EF0AF045C018F0A0
:1014700046C019F047C01AF048C01BF03D50D96E65
:10148000DA6ADF50416ED00E4124426E436AFF0E8D
:10149000432242C006F043C007F0086A096A000E02
:1014A00083EC0BF006C014F007C015F008C016F06E
:1014B00009C017F0D9EC05F014C02DF015C02EF0BE
:1014C00016C02FF017C030F049C031F04AC032F0DA
:1014D0004BC033F04CC034F07EEC03F02DC049F02B
:1014E0002EC04AF02FC04BF030C04CF045C014F075
:1014F00046C015F047C016F048C017F0CD0E186E64
:10150000CC0E196ECC0E1A6E3D0E1B6ED9EC05F08A
:1015100014C045F015C046F016C047F017C048F09B
:101520003D2A3D50D96EDA6ADF50D8A49AEF0AF00E
:101530009CEF0AF0C6EF09F049C03DF04AC03EF00A
:101540004BC03FF04CC040F01200BFEC17F0000E53
:10155000106E000E53EC15F04E0E106E1050D8A405
:10156000060E116EADEC14F000017C05D8A4BBEFA3
:101570000AF0BDEF0AF01CEF0BF0000E106E010E2A
:1015800053EC15F0B50E106E1050D8A4060E116E67
:10159000ADEC14F0A00E106E116AADEC14F09B0EC1
:1015A000106E1050D8A4060E116EADEC14F0000EA3
:1015B000106E020E53EC15F0C70E106E1050D8A42A
:1015C000060E116EADEC14F000017951D8B4EBEFBA
:1015D0000AF0EDEF0AF0F7EF0AF0F60E106E105079
:1015E000D8A4060E116EADEC14F0FFEF0AF0EC0E6D
:1015F000106E1050D8A4060E116EADEC14F0000E53
:10160000106E030E53EC15F0DE0E106E1050D8A4C1
:10161000060E116EADEC14F06AC01BF06BC01CF02E
:1016200072EC13F09B0E106E1050D8A4060E116EC3
:10163000ADEC14F082EF0BF0020E7C19D8A423EF6E
:101640000BF025EF0BF082EF0BF0000E106E010E89
:1016500053EC15F0860E106E1050D8A4060E116EC5
:10166000ADEC14F0900E106E116AADEC14F0B20EE9
:10167000106E1050D8A4060E116EADEC14F0000ED2
:10168000106E020E53EC15F0BF0E106E1050D8A461
:10169000060E116EADEC14F000017851D8B453EF82
:1016A0000BF055EF0BF05FEF0BF0F60E106E1050D5
:1016B000D8A4060E116EADEC14F067EF0BF0EC0E33
:1016C000106E1050D8A4060E116EADEC14F0000E82
:1016D000106E030E53EC15F0D70E106E1050D8A4F8
:1016E000060E116EADEC14F068C01BF069C01CF062
:1016F00072EC13F0B20E106E1050D8A4060E116EDC
:10170000ADEC14F012000E6E0E50D8B48AEF0BF050
:101710008CEF0BF0AEEF0BF009BE93EF0BF091EFF7
:101720000BF0AEEF0BF006C00AF007C00BF008C0DC
:101730000CF009C00DF00A1E0B1E0C1E0D1E0A2A0D
:10174000000E0B220C220D220AC010F00BC011F06B
:101750000CC012F00DC013F0B6EF0BF006C010F085
:1017600007C011F008C012F009C013F006500710AE
:1017700008100910D8A4BFEF0BF0C1EF0BF0CBEFAE
:101780000BF0000E066E000E076E000E086E000EC7
:10179000096E5CEF0CF0960E0F6ED5EF0BF00F2A72
:1017A000D8901332123211321032000E10140A6E19
:1017B000000E11140B6E000E12140C6EFE0E13149C
:1017C0000D6E0A500B100C100D10D8A4EAEF0BF0A0
:1017D000ECEF0BF0CFEF0BF0FAEF0BF00F2A010E4E
:1017E0001026000E112212221322D8901332123228
:1017F00011321032000E10140A6E000E11140B6E0E
:10180000000E12140C6EFF0E13140D6E0A500B1006
:101810000C100D10D8A40FEF0CF011EF0CF0EEEF40
:101820000BF019EF0CF00F06D89010361136123667
:10183000133612BE1EEF0CF020EF0CF028EF0CF068
:10184000020E0F6026EF0CF028EF0CF013EF0CF0F7
:101850000FB02DEF0CF02FEF0CF030EF0CF0129ECC
:10186000D8900F320FC00AF00B6A0C6A0D6A0AC0DA
:101870000DF00C6A0B6A0A6A0A5010120B50111212
:101880000C5012120D5013120E50D8B44AEF0CF037
:101890004CEF0CF054EF0CF009BE53EF0CF051EF8D
:1018A0000CF054EF0CF0138E10C006F011C007F0CE
:1018B00012C008F013C009F0120000017B51D8A437
:1018C00064EF0CF066EF0CF06CEF0CF03D0E156E53
:1018D000F4EC15F016EF0DF0800E3D6EB3EC09F050
:1018E0003DC0B2F03EC0B3F03FC0B4F040C0B5F070
:1018F00000017C05D8A47FEF0CF081EF0CF0BAEF6B
:101900000CF0000E066E000E076EF00E086E410E13
:10191000096EB2C00AF0B3C00BF0B4C00CF0B5C091
:101920000DF00CEC10F0D8B098EF0CF09AEF0CF032
:10193000A0EF0CF0920E156EF4EC15F016EF0DF012
:10194000A00E066E800E076EDCEC14F0B2C064F0E0
:10195000B3C065F0B4C066F0B5C067F064C053F0C2
:1019600065C054F066C055F067C056F097EC15F0AE
:10197000FAEF0CF0020E7C19D8A4C1EF0CF0C3EF03
:101980000CF0FAEF0CF0000E066E000E076E400E23
:10199000086E400E096EB2C00AF0B3C00BF0B4C0BE
:1019A0000CF0B5C00DF00CEC10F0D8B0DAEF0CF084
:1019B000DCEF0CF0E2EF0CF0AA0E156EF4EC15F073
:1019C00016EF0DF0900E066E800E076EDCEC14F034
:1019D000B2C060F0B3C061F0B4C062F0B5C063F0F3
:1019E00060C053F061C054F062C055F063C056F05F
:1019F000B7EC15F0A5EC0AF0020E0001B16F450E30
:101A0000B06FA90EE82EFED7B02FFCD7B12FFAD7B2
:101A100000D0586A00017C6B7F6B7E6B9FEC16F0E8
:101A2000C7EC17F017EC0DF04CEC14F01200010E9F
:101A3000D7EC15F006C072F007C073F0020ED7ECB9
:101A400015F006C070F007C071F072C006F073C0E8
:101A500007F0086A096A880E0A6E130E0B6E000EF4
:101A60000C6E000E0D6EE5EC13F0FF0E0624126EE8
:101A7000010E0720136E000E0820146E000E0920C0
:101A8000156EFF0E166E030E176E000E186E000E0A
:101A9000196E5CEC12F012C06EF013C06FF070C0E3
:101AA00006F071C007F0086A096A880E0A6E130E04
:101AB0000B6E000E0C6E000E0D6EE5EC13F0FF0EBB
:101AC0000624126E010E0720136E000E0820146EFD
:101AD000000E0920156EFF0E166E030E176E000E17
:101AE000186E000E196E5CEC12F012C06CF013C090
:101AF0006DF072C006F073C007F0086A096AB80E8C
:101B00000A6E0B0E0B6E000E0C6E000E0D6EE5ECE9
:101B100013F0FF0E0624126E010E0720136E000E46
:101B20000820146E000E0920156EFF0E166E030EAF
:101B3000176E000E186E000E196E5CEC12F012C0DB
:101B40006AF013C06BF070C006F071C007F0086A4D
:101B5000096A2C0E0A6E010E0B6E000E0C6E000E42
:101B60000D6EE5EC13F0FF0E0624126E010E072039
:101B7000136E000E0820146E000E0920156EFF0E65
:101B8000166E030E176E000E186E000E196E5CECCA
:101B900012F012C068F013C069F01200D5EC17F013
:101BA0008B84040EE82EFED781A8D9EF0DF0DBEF71
:101BB0000DF0E0EF0DF0DAEC17F0310E76EF0EF0ED
:101BC00081AAE5EF0DF0E7EF0DF0ECEF0DF0DAECA8
:101BD00017F0320E76EF0EF081ACF1EF0DF0F3EF6F
:101BE0000DF0F8EF0DF0DAEC17F0330E76EF0EF0A3
:101BF0008B948B8A040EE82EFED781A802EF0EF09C
:101C000004EF0EF009EF0EF0DAEC17F0340E76EF79
:101C10000EF081AA0EEF0EF010EF0EF015EF0EF0A1
:101C2000DAEC17F0350E76EF0EF081AC1AEF0EF00D
:101C30001CEF0EF021EF0EF0DAEC17F0360E76EF17
:101C40000EF08B9A8B8C040EE82EFED781A82BEF1A
:101C50000EF02DEF0EF032EF0EF0DAEC17F0370E3B
:101C600076EF0EF081AA37EF0EF039EF0EF03EEF6F
:101C70000EF0DAEC17F0380E76EF0EF081AC43EF91
:101C80000EF045EF0EF04AEF0EF0DAEC17F0390ED9
:101C900076EF0EF08B9C8B8E040EE82EFED781A87B
:101CA00054EF0EF056EF0EF05BEF0EF0DAEC17F09B
:101CB0002A0E76EF0EF081AA60EF0EF062EF0EF0C2
:101CC00067EF0EF0DAEC17F0300E76EF0EF081AC25
:101CD0006CEF0EF06EEF0EF073EF0EF0DAEC17F023
:101CE000230E76EF0EF0DAEC17F0000E1200576EAE
:101CF0002F0E57647EEF0EF080EF0EF0A7EF0EF080
:101D00003A0E576086EF0EF088EF0EF0A7EF0EF058
:101D10000F0E00017B618FEF0EF091EF0EF0A1EF3F
:101D20000EF07B51800FD96EDA6A57C0DFFF7B2B34
:101D30007B51800FD96EDA6ADF6A8EEC10F0FFEF0C
:101D40000EF0790E156EF4EC15F0FFEF0EF0230E89
:101D50005718D8A4AEEF0EF0B0EF0EF0F4EF0EF07F
:101D600000017A51D8B4B7EF0EF0B9EF0EF0BFEF23
:101D70000EF05D0E156EF4EC15F0FFEF0EF00F0E89
:101D80007B61C5EF0EF0C7EF0EF0EEEF0EF07B516A
:101D9000D8A4CDEF0EF0CFEF0EF0D6EF0EF07B51C2
:101DA000800FD96EDA6A300EDF6E7B2B0F0E7B61EF
:101DB000DCEF0EF0DEEF0EF0FFEF0EF07B51800F48
:101DC000D96EDA6A2E0EDF6E7B2B7B51800FD96EB7
:101DD000DA6ADF6A010E7A6F9DEF0EF0790E156EEA
:101DE000F4EC15F0FFEF0EF02A0E5718D8A4FBEF15
:101DF0000EF0FDEF0EF0FFEF0EF05DEC0CF01200B8
:101E0000000E066E000E076E000E086E000E096EC4
:101E100047C00AF048C00BF049C00CF04AC00DF0B2
:101E20000CEC10F0D8A017EF0FF019EF0FF01EEF29
:101E30000FF0486A000E476E88EF0FF047C006F0BB
:101E400048C007F049C008F04AC009F04BC00AF08A
:101E50004CC00BF04DC00CF04EC00DF00CEC10F06F
:101E6000D8A035EF0FF037EF0FF03CEF0FF00F0E6B
:101E7000486E476888EF0FF0000E186EF00E196E6E
:101E80007F0E1A6E450E1B6E47C014F048C015F049
:101E900049C016F04AC017F0D9EC05F014C02DF077
:101EA00015C02EF016C02FF017C030F04BC031F027
:101EB0004CC032F04DC033F04EC034F0ECEC07F0C3
:101EC0002DC04FF02EC050F02FC051F030C052F056
:101ED000000E316E000E326E000E336E3F0E346E09
:101EE0004FC02DF050C02EF051C02FF052C030F036
:101EF0007EEC03F02DC03DF02EC03EF02FC03FF031
:101F000030C040F089EC0FF03DC047F03EC048F0D3
:101F100012003F344034466E4650D8A492EF0FF082
:101F200094EF0FF09EEF0FF0000E3D6E000E3E6E30
:101F3000000E3F6E000E406E0BEF10F03DC041F002
:101F40003EC042F03FC043F040C044F0200EAEEF30
:101F50000FF0D8904432433242324132E82EA9EF9A
:101F60000FF04150456E3F8EFF0E3D16FF0E3E16A0
:101F7000FF0E3F16000E4016960E465E46BEC5EF9B
:101F80000FF0C3EF0FF0DBEF0FF04650800A970F12
:101F9000D8B0CDEF0FF0CFEF0FF0D1EF0FF094EFFF
:101FA0000FF0D89040323F323E323D32463ED1EFC4
:101FB0000FF0F3EF0FF01F0E4664E1EF0FF0E3EFC9
:101FC0000FF0EBEF0FF094EF0FF0D8903D363E3668
:101FD0003F36403646064650D8A4F1EF0FF0F3EFF7
:101FE0000FF0E5EF0FF04550D8B4F9EF0FF0FBEF2D
:101FF0000FF003EF10F0401E3F1E3E1E3D6C000E22
:102000003E223F2240223DC03DF03EC03EF03FC058
:102010003FF040C040F01200000E06140E6E000E9D
:1020200007140F6E800E0814106E7F0E0914116EC7
:102030000E500F1010101110D8A421EF10F023EF44
:1020400010F02BEF10F0000E066E000E076E000E63
:10205000086E000E096E000E0A140E6E000E0B14B0
:102060000F6E800E0C14106E7F0E0D14116E0E503C
:102070000F1010101110D8A440EF10F042EF10F024
:102080004AEF10F0000E0A6E000E0B6E000E0C6E82
:10209000000E0D6E09AE4FEF10F051EF10F05AEF39
:1020A00010F0066C071ED8B0072A081ED8B0082A00
:1020B000800E09560DAE5FEF10F061EF10F06AEF81
:1020C00010F00A6C0B1ED8B00B2A0C1ED8B00C2ACC
:1020D000800E0D56000E061A000E071A000E081A82
:1020E000800E091A000E0A1A000E0B1A000E0C1AA6
:1020F000800E0D1A0A50065C0B5007580C500858F9
:102100000D500958D8B087EF10F089EF10F08CEF20
:1021100010F0D8908DEF10F0D8801200BFEC17F0BF
:10212000000E106E000E53EC15F000017C05D8A4D3
:102130009CEF10F09EEF10F0A8EF10F0190E106E4B
:102140001050D8A4060E116EADEC14F0B9EF10F0DB
:10215000020E7C19D8A4AFEF10F0B1EF10F0B9EF78
:1021600010F0050E106E1050D8A4060E116EADECD6
:1021700014F0000E106E010E53EC15F0CF0E106E21
:102180001050D8A4060E116EADEC14F000017B5176
:10219000D8B4CDEF10F0CFEF10F0D6EF10F0800EE6
:1021A000106E116AADEC14F0DEEF10F0F90E106E47
:1021B0001050D8A4060E116EADEC14F0000E106E87
:1021C000020E53EC15F02B0E106E1050D8A4060E14
:1021D000116EADEC14F0000E106E030E53EC15F002
:1021E0009E0E106E1050D8A4060E116EADEC14F0B9
:1021F00012000B6A09BE01EF11F0FFEF10F007EFBC
:1022000011F0086C091ED8B0092A010E0B6E07BE2A
:102210000EEF11F00CEF11F014EF11F0066C071E29
:10222000D8B0072A010E0B1A0D6A000E0C6E08506A
:102230000910D8B41EEF11F020EF11F048EF11F0A3
:10224000010E0A6E28EF11F0D890083609360A2AD6
:1022500009AE2DEF11F02FEF11F024EF11F0D8900F
:102260000C360D360850065C09500758D8A03BEFD5
:1022700011F03DEF11F042EF11F00850065E0950E9
:10228000075A0C80D890093208320A2E2FEF11F02D
:102290000B50D8B44EEF11F050EF11F054EF11F095
:1022A0000C6C0D1ED8B00D2A0CC006F00DC007F046
:1022B0001200196A10501110D8A461EF11F063EFE9
:1022C00011F086EF11F0300ECEEC17F0B1EF11F0F7
:1022D0001950130FD96EDA6A10C006F011C007F05A
:1022E000096A0A0E086E1AEC14F00650300FDF6E01
:1022F00010C006F011C007F0096A0A0E086EACECB7
:1023000013F006C010F007C011F0192A1050111078
:10231000D8B48DEF11F08FEF11F097EF11F0050E9B
:10232000196495EF11F097EF11F068EF11F019C0F3
:102330001AF01A50D8A49FEF11F0A1EF11F0A3EFFB
:1023400011F0B1EF11F01AC012F0FF0E1226125068
:10235000130FD96EDA6ADF50CEEC17F01A0699EF38
:1023600011F012000B6A07BEBAEF11F0B8EF11F0CE
:10237000C0EF11F0066C071ED8B0072A010E0B6ED5
:1023800009BEC7EF11F0C5EF11F0CBEF11F0086CEB
:10239000091ED8B0092A08500910D8B4D2EF11F09C
:1023A000D4EF11F0F8EF11F0010E0A6EDCEF11F02E
:1023B000D890083609360A2A09AEE1EF11F0E3EFAA
:1023C00011F0D8EF11F00850065C09500758D8A05A
:1023D000ECEF11F0EEEF11F0F2EF11F00850065EA5
:1023E0000950075AD890093208320A2EE3EF11F04B
:1023F0000B50D8B4FEEF11F000EF12F004EF12F022
:10240000066C071ED8B0072A06C006F007C007F002
:10241000120000017F05D8A410EF12F012EF12F0A5
:1024200033EF12F07F6B090E146E1C0EE82EFED7F0
:10243000142EFCD700D081B020EF12F023EF12F061
:10244000010E24EF12F0000E89EC17F00009D8B449
:102450002CEF12F02EEF12F033EF12F0010E1AEC07
:1024600017F05BEF12F000017E05D8A43AEF12F0EE
:102470003CEF12F05BEF12F07E6B090E146E1C0E37
:10248000E82EFED7142EFCD700D081BE4AEF12F002
:102490004DEF12F0010E4EEF12F0000E89EC17F026
:1024A0000009D8B456EF12F058EF12F05BEF12F0BB
:1024B000020E1AEC17F01200000E1A6E000E1B6EC0
:1024C000000E1C6E000E1D6E1650171018101910FD
:1024D000D8B46DEF12F06FEF12F0A5EF12F0010E0D
:1024E0001E6E79EF12F0D890163617361836193658
:1024F0001E2A19AE7EEF12F080EF12F073EF12F089
:10250000D8901A361B361C361D361650125C1750E2
:1025100013581850145819501558D8A092EF12F0AB
:1025200094EF12F09DEF12F01650125E1750135AEE
:102530001850145A1950155A1A80D8901932183256
:10254000173216321E2E80EF12F01AC012F01BC086
:1025500013F01CC014F01DC015F01200E9EC16F0C9
:1025600038EC13F005EC15F00FEC16F0C7EC17F093
:102570005BEC16F056EC17F09FEC16F017EC0DF034
:102580004CEC14F05850D8A4C8EF12F0CAEF12F077
:10259000DBEF12F009EC12F017EC0DF0FBEC12F08F
:1025A000520E0001B66F290EE82EFED7B62FFCD7CB
:1025B00000D0C2EF12F02EEC15F0D8EC16F00001AE
:1025C000B76FB751D8B4E7EF12F0E9EF12F0C2EFEE
:1025D00012F0B75177EC0EF08B80140E0001B66F3D
:1025E000790EE82EFED7B62FFCD700D08B90C2EF25
:1025F00012F04CEF00F0020E29EC16F0000E106EF7
:10260000020E53EC15F0DE0E106E1050D8A4060E1C
:10261000116EADEC14F06AC01BF06BC01CF072ECD4
:1026200013F09B0E106E1050D8A4060E116EADEC78
:1026300014F0030E29EC16F0000E106E030E53EC8E
:1026400015F0D70E106E1050D8A4060E116EADEC1A
:1026500014F068C01BF069C01CF072EC13F0B20EED
:10266000106E1050D8A4060E116EADEC14F01200CE
:1026700065EC17F0110E106E3A0EE82EFED7102EF4
:10268000FCD700D0000E0A6E300EB2EC16F0FA0E37
:1026900000D0E82EFDD7000E0A6E300EB2EC16F018
:1026A000FA0E00D0E82EFDD7000E0A6E300EB2EC06
:1026B00016F0530EE82EFED70000000E0A6E200E14
:1026C000B2EC16F0530EE82EFED70000280EABEC4D
:1026D00017F00C0EABEC17F0060EABEC17F0BFECDE
:1026E00017F012001BC006F01CC007F0096A640E48
:1026F000086EACEC13F006C01DF007C01EF01BC046
:1027000006F01CC007F0096A640E086E1AEC14F09B
:1027100006501F6E1DC010F01EC011F059EC11F0D4
:102720002E0ECEEC17F01FC006F0076A096A0A0EDB
:10273000086EF9EC10F00650300FCEEC17F01FC009
:1027400006F0076A096A0A0E086EB2EC11F006502C
:10275000300FCEEC17F012000C6A000E0B6E085012
:102760000910D8B4B6EF13F0B8EF13F0E0EF13F0A0
:10277000010E0A6EC0EF13F0D890083609360A2A07
:1027800009AEC5EF13F0C7EF13F0BCEF13F0D8900C
:102790000B360C360850065C09500758D8A0D3EF0A
:1027A00013F0D5EF13F0DAEF13F00850065E09507E
:1027B000075A0B80D890093208320A2EC7EF13F05F
:1027C0000BC006F00CC007F01200000E0E6E000EDB
:1027D0000F6E000E106E000E116E06A0F2EF13F0D9
:1027E000F4EF13F0FCEF13F00A500E260B500F22FB
:1027F0000C5010220D501122D8900A360B360C3690
:102800000D36D890093208320732063206500710CA
:1028100008100910D8A40FEF14F011EF14F0EDEF29
:1028200013F00EC006F00FC007F010C008F011C082
:1028300009F0120008500910D8B421EF14F023EF6A
:1028400014F047EF14F0010E0A6E2BEF14F0D8903D
:10285000083609360A2A09AE30EF14F032EF14F0C8
:1028600027EF14F00850065C09500758D8A03BEF3A
:1028700014F03DEF14F041EF14F00850065E0950DB
:10288000075AD890093208320A2E32EF14F006C0E7
:1028900006F007C007F01200BFEC17F0000E106E34
:1028A000000E53EC15F0E50E106E1050D8A4060E75
:1028B000116EADEC14F0A00E106E116AADEC14F0B8
:1028C000F20E106E1050D8A4060E116EADEC14F07E
:1028D000900E106E116AADEC14F0000E106E010E29
:1028E00053EC15F06C0E106E1050D8A4060E116E3D
:1028F000ADEC14F0FBEC12F012000C6E010E0F6E3A
:10290000100E095CD8A087EF14F089EF14F08CEF5B
:1029100014F00F0E096E086809500F0B0D6E08C0F9
:102920000EF0A0EC17F00C500C2442EC16F00A6EDE
:102930000B6A0A500F160D5042EC16F00A6E0B6A25
:102940000A500F160E5042EC16F00A6E0B6A0A502F
:102950000F1695EC17F00F501200C3EF14F010C0D3
:10296000F6FF11C0F7FFF86A050EF76403D0080000
:10297000F55005D0F6CFE1FFF7CFE2FFE750CEEC00
:1029800017F0104A112A10C0F6FF11C0F7FFF86ABD
:10299000050EF76403D00800F55005D0F6CFE1FF2F
:1029A000F7CFE2FFE7500009D8A4D9EF14F0DBEF2E
:1029B00014F0AFEF14F01200086A07500824D96E23
:1029C000DA6A06500824E16EE26ADFCFE7FF0750BB
:1029D0000824D96EDA6ADF50D8A4F1EF14F0F3EFCF
:1029E00014F0F5EF14F004EF15F0082A0E0E086449
:1029F000FCEF14F0FEEF14F0DDEF14F00650D96E8A
:102A0000DA6A0F0ED926DF6A12000AEC17F0110EEF
:102A1000576E3A0EE82EFED7572EFCD700D0600E28
:102A200071EC17F00001796F610E71EC17F0000185
:102A3000786F000E536E000E546E000E556E000E31
:102A4000566E97EC15F0000E536E000E546E000E8D
:102A5000556E000E566EB7EC15F012005B50D8A400
:102A600034EF15F036EF15F038EF15F052EF15F0A2
:102A70005B6A090E066E1C0EE82EFED7062EFCD7EA
:102A800000D0CEEC0DF0076E0750D8B44AEF15F029
:102A90004CEF15F050EF15F007C059F0010E5A6ECB
:102AA000DAEC17F01200126E030E12645AEF15F0F2
:102AB0005CEF15F05EEF15F0030E126E130E10644E
:102AC00064EF15F066EF15F068EF15F0130E106E59
:102AD0001250010F116E11C0F6FF060EF76E0800BE
:102AE000F55010248009ABEC17F01200F40EF66ECE
:102AF0002D0EF76E000EF86E00EE90F010EE20F046
:102B00000900F5CFEEFFE550E150FAE100EE60F08C
:102B1000300EEE6AE806FDE15B6A5A6A596A586A45
:102B200001900192000EF86E0001AEEF12F053C05A
:102B300047F054C048F055C049F056C04AF0000E66
:102B40004B6E000E4C6EF00E4D6E410E4E6E00EC54
:102B50000FF047C076F048C077F076C008F077C035
:102B600009F0600E7DEC14F00001796F120053C083
:102B700047F054C048F055C049F056C04AF0000E26
:102B80004B6E000E4C6E400E4D6E400E4E6E00ECC5
:102B90000FF047C074F048C075F074C008F075C0FD
:102BA00009F0610E7DEC14F00001786F12000A6EDE
:102BB0000A44E846FC0B0109C26E00D000D000D0E8
:102BC0000000C282C2B2E7EF15F0E9EF15F0E2EFC4
:102BD00015F0C450086EC3500B6E08C00CF00BC04B
:102BE00006F00CC007F01200030E29EC16F0000EE0
:102BF000106E030E53EC15F015C010F01050D8A451
:102C0000060E116EADEC14F0E40E166E440EE82EB6
:102C1000FED7162EFCD700D08EEC10F01200938851
:102C2000938A938C9494949A949C949E0F013999CE
:102C3000399B3A953A9B3A9D3A9FF18EDAEC17F020
:102C4000110E066E3A0EE82EFED7062EFCD700D0E7
:102C50001200136E000E106E135053EC15F0146A30
:102C6000200ECEEC17F0142A130E14643AEF16F06F
:102C70003CEF16F030EF16F0000E106E135053ECD0
:102C800015F01200076E8CEC16F0C69E07C0C9FF47
:102C9000C7B04DEF16F04FEF16F048EF16F08CEC82
:102CA00016F0C5AC56EF16F059EF16F0010E5AEFBC
:102CB00016F0000E120093800F013991F18CF29200
:102CC000F288938E628E81CF06F006BE6AEF16F010
:102CD0006DEF16F0010E6EEF16F0000E00017D6F25
:102CE000F290F286F28E1200F2A079EF16F07BEFEE
:102CF00016F08BEF16F081CF03F003C002F0700ED8
:102D00000216D8B486EF16F088EF16F08AEF16F0A8
:102D1000010E5B6EF2901200C5CF06F01F0E061674
:102D2000D8A495EF16F097EF16F08CEF16F0C7B415
:102D30009CEF16F09EEF16F08CEF16F01200066A6C
:102D40000650800FD96EDA6ADF6A062A0F0E066413
:102D5000ACEF16F0AEEF16F0A0EF16F000017B6BB3
:102D60007A6B12000B6E0B50F00B08090C6E0A50B8
:102D7000D8B4BDEF16F0BFEF16F0C0EF16F00C8020
:102D80000C920C5038EC17F012006BCF06F01F0EAF
:102D90000616D8A4CEEF16F0D0EF16F0C5EF16F059
:102DA0006DB4D5EF16F0D7EF16F0C5EF16F01200A0
:102DB0005A50D8A4DEEF16F0E0EF16F0E3EF16F06D
:102DC000000EE8EF16F05A6A59C006F0596A06502C
:102DD0001200D3508F0B3009D36ED350FC0B020975
:102DE000D36E0F01386B396B3A6B796A786A9490BD
:102DF0008B90120030000000000000000000000076
:102E00000000000030000000000000000000000092
:102E1000000000000F013A973A9994869488C69A68
:102E2000280EC66EC56A800EC76E010EC86EC69E9D
:102E3000C69C1200136E13C07CF0010E586E000188
:102E40007F6B7E6B9FEC16F0B6EC17F08EEC10F0FB
:102E500012000E6E0DC00AF00E50F00BB2EC16F020
:102E60000DC00AF00E38F00BF00BB2EC16F01200A9
:102E7000096E095004097DEC17F000000950FB0BA6
:102E80007DEC17F0080EE82EFED700001200076E4A
:102E9000C5EC16F007C06FFF6DB051EF17F053EFA0
:102EA00017F04CEF17F0C5EC16F0120092829284E6
:102EB0000F0138833885C16AA90EC06E010EC26E3B
:102EC000FA0E00D0E82EFDD712000F01396B938265
:102ED0009384280E6C6E6B6A800E6D6E010E6E6EA2
:102EE0001200086EA0EC17F00850082442EC16F00F
:102EF000096E95EC17F009501200086EE3EC17F01C
:102F0000400E47EC17F0085047EC17F0DFEC17F0D5
:102F10001200066E0650D8A490EF17F093EF17F04A
:102F2000010E94EF17F0000E12008CEC16F0C58421
:102F3000C5B49DEF17F09FEF17F098EF17F0120050
:102F40008CEC16F0C580C5B0A8EF17F0AAEF17F00B
:102F5000A3EF17F012000F6E000E0D6E0F5029EC4C
:102F600017F0A60EE82EFED700D012000FEC16F0D8
:102F7000700E62128150F290F286F28E1200010EF3
:102F8000ABEC17F0A60EE82EFED700D012008F0E85
:102F900062168150F290D5EC17F012000F6E010E00
:102FA0000D6E0F5029EC17F012008B948B9A8B9CAE
:102FB0008B9E12008B848B8A8B8C8B8E1200C5ECBF
:0E2FC00016F06B841200C5EC16F06B80120048
:020000040030CA
:08000000FF281F3CFFBD81FF3A
:00000001FF
